:100000000C945D000C9485000C9485000C94850084
:100010000C9485000C9485000C9485000C9485004C
:100020000C9485000C9485000C9485000C9485003C
:100030000C9485000C9485000C9485000C9485002C
:100040000C94A9020C9485000C9477020C94510234
:100050000C9485000C9485000C9485000C9485000C
:100060000C9485000C9485000000000024002700FB
:100070002A0000000000250028002B0004040404CE
:100080000404040402020202020203030303030342
:10009000010204081020408001020408102001021F
:1000A00004081020000000080002010000030407FB
:1000B0000000000000000000F50311241FBECFEF78
:1000C000D8E0DEBFCDBF11E0A0E0B1E0E2EAF8E0A9
:1000D00002C005900D92A631B107D9F721E0A6E143
:1000E000B1E001C01D92AC3BB207E1F710E0CDE5F5
:1000F000D0E004C02197FE010E944404CC35D10712
:10010000C9F70E94F3020C944F040C940000E7EA34
:10011000F0E02491E3E9F0E09491EFE7F0E0E4917E
:10012000EE2309F43BC0222339F1233091F038F457
:100130002130A9F0223001F524B52F7D12C02730DF
:1001400091F02830A1F02430B9F4209180002F7D67
:1001500003C0209180002F77209380000DC024B52C
:100160002F7724BD09C02091B0002F7703C02091C4
:10017000B0002F7D2093B000F0E0EE0FFF1FEE588F
:10018000FF4FA591B4912FB7F894EC91811103C062
:1001900090959E2301C09E2B9C932FBF0895CF92D4
:1001A000DF92EF92FF920F931F93CF93DF936C0137
:1001B0007A018B01C0E0D0E0CE15DF0589F0D801CF
:1001C0006D918D01D601ED91FC910190F081E02DB2
:1001D000C6010995892B11F47E0102C02196ECCF4E
:1001E000C701DF91CF911F910F91FF90EF90DF90AA
:1001F000CF900895089580E090E00895FC01538D1C
:10020000448D252F30E0842F90E0821B930B5417F0
:1002100010F0CF96089501970895FC01918D828D7D
:10022000981761F0828DDF01A80FB11D5D968C914A
:10023000928D9F5F9F73928F90E008958FEF9FEF55
:100240000895FC01918D828D981731F0828DE80F11
:10025000F11D858D90E008958FEF9FEF0895FC01CB
:10026000918D228D892F90E0805C9F4F821B910998
:100270008F73992708958FE191E00E942F0121E06B
:10028000892B09F420E0822F0895FC01848DDF0181
:10029000A80FB11DA35ABF4F2C91848D90E00196F9
:1002A0008F739927848FA689B7892C93A089B189E8
:1002B0008C9180648C93938D848D981306C00288F2
:1002C000F389E02D80818F7D80830895EF92FF92E6
:1002D0000F931F93CF93DF93EC0181E0888F9B8D69
:1002E0008C8D981305C0E889F989808185FD24C02B
:1002F000F62E0B8D10E00F5F1F4F0F731127E02EAE
:100300008C8DE8120CC00FB607FCFACFE889F9898A
:10031000808185FFF5CFCE010E944501F1CF8B8D05
:10032000FE01E80FF11DE35AFF4FF0820B8FEA89BF
:10033000FB898081806207C0EE89FF896083E8893C
:10034000F98980818064808381E090E0DF91CF91A2
:100350001F910F91FF90EF900895CF93DF93EC01E1
:10036000888D8823C9F0EA89FB89808185FD05C0D5
:10037000A889B9898C9186FD0FC00FB607FCF5CF0F
:10038000808185FFF2CFA889B9898C9185FFEDCF57
:10039000CE010E944501E7CFDF91CF91089580E023
:1003A00090E0892B29F00E943B0181110C94000000
:1003B00008953FB7F89480911B0190911C01A09182
:1003C0001D01B0911E0126B5A89B05C02F3F19F055
:1003D0000196A11DB11D3FBFBA2FA92F982F8827C5
:1003E000820F911DA11DB11DBC01CD0142E0660F20
:1003F000771F881F991F4A95D1F708958F929F9272
:10040000AF92BF920F931F93CF93DF93CDB7DEB719
:10041000A1970FB6F894DEBF0FBECDBF19A2423030
:1004200008F44AE08E010F5D1F4F842E912CA12C01
:10043000B12CA50194010E942204E62FB901CA0142
:1004400001501109EA3014F4E05D01C0E95CD80103
:10045000EC93232B242B252B61F70115110571F04B
:10046000F80101900020E9F73197AF01401B510BD3
:10047000B8018FE191E00E94CF0002C080E090E0DF
:10048000A1960FB6F894DEBF0FBECDBFDF91CF911E
:100490001F910F91BF90AF909F908F9008950E94F1
:1004A0004A041F920F920FB60F9211242F933F937D
:1004B0004F935F936F937F938F939F93AF93BF936C
:1004C000EF93FF938FE191E00E944501FF91EF913F
:1004D000BF91AF919F918F917F916F915F914F915C
:1004E0003F912F910F900FBE0F901F9018951F9264
:1004F0000F920FB60F9211242F938F939F93EF9328
:10050000FF93E0912F01F09130018081E09135015E
:10051000F091360182FD12C09081809138018F5F89
:100520008F7320913901821751F0E0913801F0E08A
:10053000E15EFE4F958F8093380101C08081FF916D
:10054000EF919F918F912F910F900FBE0F901F9061
:1005500018951F920F920FB60F9211242F933F936D
:100560008F939F93AF93BF93809117019091180140
:10057000A0911901B0911A013091160123E0230FC7
:100580002D3720F40196A11DB11D05C026E8230FCB
:100590000296A11DB11D209316018093170190931F
:1005A0001801A0931901B0931A0180911B01909139
:1005B0001C01A0911D01B0911E010196A11DB11D4C
:1005C00080931B0190931C01A0931D01B0931E0109
:1005D000BF91AF919F918F913F912F910F900FBE3F
:1005E0000F901F901895789484B5826084BD84B56F
:1005F000816084BD85B5826085BD85B5816085BD1E
:1006000080916E00816080936E00109281008091D5
:10061000810082608093810080918100816080935D
:100620008100809180008160809380008091B10082
:1006300084608093B1008091B00081608093B000AD
:1006400080917A00846080937A0080917A00826041
:1006500080937A0080917A00816080937A00809103
:100660007A00806880937A001092C100E3E9F0E09C
:100670002491EFE7F0E08491882399F090E0880FCF
:10068000991FFC01E859FF4FA591B491FC01EE5868
:10069000FF4F859194918FB7F894EC91E22BEC93F6
:1006A0008FBFE0912F01F091300182E08083E091D3
:1006B0002B01F0912C011082E0912D01F0912E017F
:1006C0008FEC808310923701E0913301F091340177
:1006D00086E08083E0913101F09132018081806178
:1006E0008083E0913101F0913201808188608083C4
:1006F000E0913101F0913201808180688083E09146
:100700003101F091320180818F7D808310E410935C
:100710007C0080917A00806480937A0080917A00D6
:1007200086FDFCCFC091780080917900D0E0D82B75
:100730006E010D2E000CEE08FF08D7FF14C0E091EB
:100740001F01F09120010190F081E02D6DE28FE119
:1007500091E0099566277727CB016C197D098E09F1
:100760009F094AE003C04AE0C701B6010E94FE01AA
:1007700042E050E062E171E08FE191E00E94CF0041
:100780000E94D9014B015C0182E3C82ED12CE12CDF
:10079000F12C0E94D901DC01CB0188199909AA0921
:1007A000BB09883E9340A105B10558F021E0C21A6B
:1007B000D108E108F10888EE880E83E0981EA11C9C
:1007C000B11CC114D104E104F10419F7C53883E068
:1007D000D80714F080E004C0C235D3401CF481E097
:1007E0000E9487000E94CF0192CFEFE1F1E01382D7
:1007F000128288EE93E0A0E0B0E084839583A68324
:10080000B78384E091E09183808385EC90E09587C5
:10081000848784EC90E09787868780EC90E0918BCA
:10082000808B81EC90E0938B828B82EC90E0958BB7
:10083000848B86EC90E0978B868B118E128E138EB4
:10084000148E0895A1E21A2EAA1BBB1BFD010DC038
:10085000AA1FBB1FEE1FFF1FA217B307E407F50770
:1008600020F0A21BB30BE40BF50B661F771F881F4C
:10087000991F1A9469F760957095809590959B01E2
:10088000AC01BD01CF010895EE0FFF1F0590F4915B
:10089000E02D099481E090E0F8940C944F04F894D2
:0208A000FFCF88
:1008A200000000006601CF00FE00AD012F010D0126
:0608B20021010D0A000007
:00000001FF
